:100000001DC037C036C035C034C033C032C031C067
:1000100030C02FC02EC02DC02CC02BC02AC029C07C
:1000200028C027C026C025C024C023C022C021C0AC
:1000300020C01FC01EC01DC01CC01BC011241FBE7D
:10004000CFEFD2E0DEBFCDBF11E0A0E0B1E0E8E449
:10005000FBE002C005900D92A039B107D9F721E06D
:10006000A0E9B1E001C01D92A039B207E1F7B5D017
:1000700069C5C6CF1F93CF93DF93CDB7DEB72E9759
:100080000FB6F894DEBF0FBECDBF87E0E0E0F1E031
:10009000DE01119601900D928A95E1F787E0E7E085
:1000A000F1E0DE01189601900D928A95E1F741E0AA
:1000B00063E08BE390E03BD22FE73AE186E021500A
:1000C00030408040E1F700C000009FE72AE136E0C1
:1000D000915020403040E1F700C000008FE79AE1E6
:1000E00026E0815090402040E1F700C0000040E051
:1000F00063E08BE390E01BD280E00BC0A8953FE764
:100100009AE126E0315090402040E1F700C0000025
:100110008F5F843198F310E00FC0E1E0F0E0EC0F66
:10012000FD1FE10FF11D80814DD187EC90E001971B
:10013000F1F700C000001F5F173078F310E00FC028
:10014000E8E0F0E0EC0FFD1FE10FF11D80813AD1F6
:1001500087EC90E00197F1F700C000001F5F1730B7
:1001600078F3A8952E960FB6F894DEBF0FBECDBFDC
:10017000DF91CF911F9108951F93CF93DF93CDB758
:10018000DEB727970FB6F894DEBF0FBECDBF87E06E
:10019000EEE0F1E0DE01119601900D928A95E1F713
:1001A00010E00FC0E1E0F0E0EC0FFD1FE10FF11DEA
:1001B000808108D187EC90E00197F1F700C0000042
:1001C0001F5F173078F327960FB6F894DEBF0FBE87
:1001D000CDBFDF91CF911F910895CF93DF93CDB71E
:1001E000DEB7C654D1090FB6F894DEBF0FBECDBF3F
:1001F00040E060E08AE390E09AD141E063E08AE386
:1002000090E095D141E067E08AE390E090D141E051
:1002100061E087E390E08BD141E061E088E390E02A
:1002200086D141E062E087E390E081D110E01DC01B
:1002300041E067E08BE390E07AD12FEF80E792E036
:10024000215080409040E1F700C0000040E067E0AE
:100250008BE390E06CD12FEF80E792E0215080405B
:100260009040E1F700C000001F5F123008F380E209
:10027000D7D0A89583E090E09AD0D6D0FBDEA895A1
:100280002FE78AE196E0215080409040E1F700C0DE
:1002900000002FE78AE196E0215080409040E1F78E
:1002A00000C000002FE78AE196E021508040904096
:1002B000E1F700C0000060DFA8952FE78AE196E033
:1002C000215080409040E1F700C000002FE78AE114
:1002D00096E0215080409040E1F700C000002FE7F9
:1002E0008AE196E0215080409040E1F700C0000094
:1002F000E3D0811107C083E390E06BD063E380E03B
:10030000CDD004C080E0C0D090E063D08BE089B94C
:1003100018B887E000D180E008C0E3E3F0E0EC0F1C
:10032000FD1FE80FF11D10828F5F8431B0F3A89597
:10033000F7D08BAB93E140E050E016C0292F30E0BE
:10034000A3E3B0E0AC0FBD1FA20FB31F8C91480F09
:10035000511D21503109E3E3F0E0EC0FFD1FE20FE6
:10036000F31F80818C9391509111E8CFCA0164E111
:1003700070E0F0D08BA91F928F937F936F938CE1E5
:1003800091E09F938F938E010F5F1F4F1F930F93E9
:10039000F5D0C80130D08FE19EE40197F1F700C09D
:1003A00000000FB6F894DEBF0FBECDBFC0CF909354
:1003B00082008093810088E1809385008EE08093A5
:1003C000840008959091860095FFFCCF8093800073
:1003D0000895909392008093910088E18093950016
:1003E0008EE08093940008959091960095FFFCCF45
:1003F0008093900008950F931F93CF93DF938C0108
:10040000C0E0D0E002C0F0DF2196F801EC0FFD1F44
:1004100080818111F8CFDF91CF911F910F910895C5
:1004200014BE886081BD08951F93CF93DF9314B7E6
:1004300085E491E0E0DFD0E421C0CD2FC123C230BC
:1004400081F018F4C13089F013C0C43031F0C830E5
:1004500079F48EE491E0CFDF0BC08EE591E0CBDF45
:1004600007C08EE691E0C7DF03C08EE791E0C3DFEF
:10047000CC2319F08DE891E0BEDFD695D111DDCF08
:10048000DF91CF911F910895E199FECF90E09FBB3E
:100490008EBB8CB381608CBB8DB30895E199FECF88
:1004A0001CBA90E09FBB8EBB6DBB8CB384608CBBD1
:1004B0008CB382608CBB0895CF93DF93CDB7DEB74A
:1004C00027970FB6F894DEBF0FBECDBF87E0E5E1FA
:1004D000F1E0DE01119601900D928A95E1F780E03E
:1004E000D3DF90E031E00BC0E1E0F0E0EC0FFD1F66
:1004F000E90FF11D2081821330E0A8959F5F9730AE
:1005000098F3832F27960FB6F894DEBF0FBECDBFAA
:10051000DF91CF91089598E094B9806885B90895E6
:1005200085B1806485B92E99FECF87B108954423A3
:1005300059F0FC01408121E030E002C0220F331F5E
:100540006A95E2F7242B03C0FC01208120E0FC0126
:1005500020830895AA1BBB1B51E107C0AA1FBB1F24
:10056000A617B70710F0A61BB70B881F991F5A953F
:10057000A9F780959095BC01CD010895AEE0B0E05B
:10058000E3ECF2E0B6C20D891E8986E08C831A8303
:1005900009838FEF9FE79E838D83AE01475E5F4F98
:1005A0006F89788DCE01019608D0EF81F885E00F34
:1005B000F11F10822E96E4E0B8C2ABE0B0E0E2EEAC
:1005C000F2E089C26C017B018A01FC01178216826C
:1005D000838181FFC0C1CE0101963C01F601938168
:1005E000F70193FD859193FF81917F01882309F4A1
:1005F000AEC1853239F493FD859193FF81917F01DE
:10060000853221F4B60190E0C1D1E8CF912C212CA4
:10061000312CFFE1F315E0F08B3279F038F48032C1
:1006200079F08332A9F4232D206110C08D3259F066
:10063000803371F4232D216009C0832D8260382E10
:10064000E32DE46022C0F32DF86025C0322E27C0D0
:1006500037FC2DC020ED280F2A3088F436FE06C066
:10066000892D6AE02FD2922E980E19C0822D6AE051
:1006700029D2222E280E832D8062382E10C08E3271
:1006800031F436FC64C1E32DE0643E2E08C08C36A4
:1006900021F4F32DF0683F2E02C0883641F4F701B3
:1006A00093FD859193FF81917F018111B2CF982FA6
:1006B0009F7D9554933028F40C5F1F4F2FE32983BF
:1006C0000DC0833631F0833771F0833509F055C0A2
:1006D00020C0F801808189830E5F1F4F8824839496
:1006E000912C530112C02801F2E04F0E511CF80169
:1006F000A080B18036FE03C0692D70E002C06FEFAC
:100700007FEFC50138D14C018201F32DFF773F2ED9
:1007100015C0280122E0420E511CF801A080B180D2
:1007200036FE03C0692D70E002C06FEF7FEFC50198
:1007300017D14C01F32DF0683F2E820133FC19C014
:10074000822D90E088169906A0F4B60180E290E030
:100750001DD12A94F5CFF50137FC859137FE8191A3
:100760005F01B60190E012D121102A9421E0821A93
:1007700091088114910479F7E1C0843611F089362B
:1007800039F5F80137FE07C060817181828193815C
:100790000C5F1F4F08C060817181072E000C880B11
:1007A000990B0E5F1F4FF32DFF763F2E97FF09C069
:1007B00090958095709561957F4F8F4F9F4FF06812
:1007C0003F2E2AE030E0A3011DD1882E861844C0B8
:1007D000853731F4232D2F7EB22E2AE030E025C05C
:1007E000932D997FB92E8F36C1F018F4883579F0A2
:1007F000AEC0803719F0883721F0A9C0E92FE06139
:10080000BE2EB4FE0DC0FB2DF460BF2E09C034FE19
:100810000AC0292F2660B22E06C028E030E005C0AD
:1008200020E130E002C020E132E0F801B7FE07C06D
:1008300060817181828193810C5F1F4F06C060814E
:10084000718180E090E00E5F1F4FA301DBD0882E06
:100850008618FB2DFF773F2E36FE0DC0232D2E7FF1
:10086000A22E891458F434FE0BC032FC09C0832D2B
:100870008E7EA82E05C0B82CA32C03C0B82C01C0B6
:10088000B92CA4FE0FC0FE01E80DF11D808180335C
:1008900021F49A2D997EA92E09C0A2FE06C0B39418
:1008A000B39404C08A2D867809F0B394A3FC10C0D9
:1008B000A0FE06C0B21480F4280C922C9B180DC028
:1008C000B21458F4B60180E290E060D0B394F8CF4F
:1008D000B21418F42B1802C0982C212CA4FE0FC0BF
:1008E000B60180E390E052D0A2FE16C0A1FC03C086
:1008F00088E790E002C088E590E0B6010CC08A2D40
:10090000867851F0A1FE02C08BE201C080E2A7FC14
:100910008DE2B60190E03AD0891430F4B60180E35C
:1009200090E034D09A94F8CF8A94F301E80DF11D49
:100930008081B60190E02AD08110F6CF222009F400
:100940004DCEB60180E290E021D02A94F7CFF60197
:100950008681978102C08FEF9FEF2B96E2E1D7C08F
:10096000FC010590615070400110D8F7809590957A
:100970008E0F9F1F0895FC0161507040019001107F
:10098000D8F7809590958E0F9F1F08950F931F9312
:10099000CF93DF93FB01238121FD03C08FEF9FEFF6
:1009A0002CC022FF16C04681578124813581421711
:1009B000530744F4A081B1819D012F5F3F4F3183E4
:1009C00020838C93268137812F5F3F4F3783268387
:1009D00014C08B01EC01FB010084F185E02D099529
:1009E000892BE1F6D80116968D919C911797019667
:1009F00017969C938E931697CE01DF91CF911F91FE
:100A00000F910895FA01AA27283061F1203191F160
:100A1000E8946F936E7F6E5F7F4F8F4F9F4FAF4F06
:100A2000B1E040D0B4E03ED0670F781F891F9A1F15
:100A3000A11D680F791F8A1F911DA11D6A0F711DCD
:100A4000811D911DA11D22D009F468943F91062EAD
:100A5000000C3019000C000C3019305D3193CEF6CB
:100A6000CF010895462F4770405D4193B3E00FD00A
:100A7000C9F7F6CF462F4F70405D4A3318F0495DF5
:100A800031FD4052419302D0A9F7EACFB4E0A695D8
:100A90009795879577956795BA95C9F700976105FA
:100AA000710508959B01AC010A2E06945795479550
:100AB00037952795BA95C9F7620F731F841F951F45
:100AC000A01D0895002480FD060E660F11F0869586
:100AD000D1F7802D08952F923F924F925F926F929F
:100AE0007F928F929F92AF92BF92CF92DF92EF92BE
:100AF000FF920F931F93CF93DF93CDB7DEB7CA1B3F
:100B0000DB0B0FB6F894DEBF0FBECDBF09942A8869
:100B1000398848885F846E847D848C849B84AA8411
:100B2000B984C884DF80EE80FD800C811B81AA819E
:100B3000B981CE0FD11D0FB6F894DEBF0FBECDBF69
:080B4000ED010895F894FFCFC8
:100B4800AA0003020051AAAA0003020052A9AA009F
:100B58000302005D9ECF6733190C0703454541200A
:100B6800656E204D6F72736520646F6E6E65202D03
:100B78002D2D3E202E202E202E5F0920256420209A
:100B880025640D0A004D43555352203A2000574121
:100B980054434820444F472052455345540042523D
:100BA8004F574E2D4F5554205245534554004558E4
:100BB800544552544E414C20524553455400504FD1
:100BC8005745522D4F4E205245534554000A0D00AB
:00000001FF
