:100000001DC02FC02EC02DC02CC02BC02AC029C09F
:1000100028C027C026C025C024C023C022C021C0BC
:1000200020C01FC01EC01DC01CC01BC01AC019C0EC
:1000300018C017C016C015C014C013C011241FBEAD
:10004000CFEFD2E0DEBFCDBF11E0A0E0B1E0EEE047
:10005000F2E002C005900D92A437B107D9F702D0A3
:10006000D4C0CECF80E252D0A89554D083E390E0A4
:1000700014D09CD0811107C083E390E020D063E3CB
:1000800080E086D004C080E079D090E018D087E08E
:1000900091E027D082E40CD0FFCF90938200809330
:1000A000810088E1809385008EE08093840008952C
:1000B0009091860095FFFCCF8093800008959093E7
:1000C00092008093910088E1809395008EE0809368
:1000D000940008959091960095FFFCCF8093900036
:1000E00008950F931F93CF93DF938C01C0E0D0E06E
:1000F000F801EC0FFD1F8081882319F0EBDF2196BA
:10010000F7CFDF91CF911F910F91089514BE8860B2
:1001100081BD08951F93CF93DF9314B788E291E0D8
:10012000E0DFC0E4CC2331F1DC2FD123D23081F0E9
:1001300018F4D13089F013C0D43031F0D83079F4CC
:1001400081E391E0CEDF0BC081E491E0CADF07C01C
:1001500081E591E0C6DF03C081E691E0C2DFDD23E7
:1001600019F080E791E0BDDF8C2F90E095958795A1
:10017000C82FD8CFDF91CF911F910895E199FECF7D
:1001800090E09FBB8EBB8CB381608CBB8DB3089518
:10019000E199FECF1CBA90E09FBB8EBB6DBB8CB3C8
:1001A00084608CBB8CB382608CBB0895CF93DF934B
:1001B000CDB7DEB727970FB6F894DEBF0FBECDBF21
:1001C00087E0E0E0F1E0DE01119601900D928A9562
:1001D000E1F780E0D3DF90E031E0973060F4E1E0D8
:1001E000F0E0EC0FFD1FE90FF11D2081821330E0DC
:1001F000A8959F5FF2CF832F27960FB6F894DEBFA6
:0E0200000FBECDBFDF91CF910895F894FFCFD0
:10020E00CF6733190C070345454120656E204D6FAE
:10021E0072736520646F6E6E65202D2D2D3E202E1F
:10022E00202E202E5F0D0A004D43555352203A20AA
:10023E0000574154434820444F472052455345549C
:10024E000042524F574E2D4F555420524553455450
:10025E00004558544552544E414C20524553455436
:10026E0000504F5745522D4F4E2052455345540086
:04027E000A0D000065
:00000001FF
