:100000001DC02FC02EC02DC02CC02BC02AC029C09F
:1000100028C027C026C025C024C023C022C021C0BC
:1000200020C01FC01EC01DC01CC01BC01AC019C0EC
:1000300018C017C016C015C014C013C011241FBEAD
:10004000CFEFD2E0DEBFCDBF11E0A0E0B1E0E4EB46
:10005000F8E002C005900D92AC37B107D9F702D095
:1000600027C4CECFCF93DF93CDB7DEB7C654D10927
:100070000FB6F894DEBF0FBECDBF80E296D0A89534
:1000800083E390E060D095D0E0D0811107C083E396
:1000900090E064D063E380E0CAD004C080E0BDD0CB
:1000A00090E05CD08BE089B918B887E0FDD080E0A3
:1000B000843148F4E3E3F0E0EC0FFD1FE80FF11D9D
:1000C00010828F5FF5CFA895F4D08BAB93E140E021
:1000D00050E09923B9F0292F30E0A3E3B0E0AC0F52
:1000E000BD1FA20FB31F8C91480F511D2150310924
:1000F000E3E3F0E0EC0FFD1FE20FF31F80818C9330
:100100009150E7CFCA0164E170E0DAD08BA91F9269
:100110008F937F936F9387E091E09F938F938E01EE
:100120000F5F1F4F1F930F93DFD0C80129D08FE1BE
:100130009EE40197F1F700C000000FB6F894DEBF0F
:100140000FBECDBFC0CF909382008093810088E125
:10015000809385008EE080938400089590939200B0
:100160008093910088E1809395008EE080939400C5
:1001700008959091960095FFFCCF8093900008958C
:100180000F931F93CF93DF938C01C0E0D0E0F80171
:10019000EC0FFD1F8081882319F0EBDF2196F7CF4C
:1001A000DF91CF911F910F91089514BE886081BD9A
:1001B00008951F93CF93DF9314B780E391E0E0DFBE
:1001C000C0E4CC2331F1DC2FD123D23081F018F4FC
:1001D000D13089F013C0D43031F0D83079F489E3CC
:1001E00091E0CEDF0BC089E491E0CADF07C089E56A
:1001F00091E0C6DF03C089E691E0C2DFDD2319F09C
:1002000088E791E0BDDF8C2F90E095958795C82F0A
:10021000D8CFDF91CF911F910895E199FECF90E063
:100220009FBB8EBB8CB381608CBB8DB30895E1996D
:10023000FECF1CBA90E09FBB8EBB6DBB8CB38460BD
:100240008CBB8CB382608CBB0895CF93DF93CDB70A
:10025000DEB727970FB6F894DEBF0FBECDBF87E09D
:10026000E0E0F1E0DE01119601900D928A95E1F750
:1002700080E0D3DF90E031E0973060F4E1E0F0E03F
:10028000EC0FFD1FE90FF11D2081821330E0A895CE
:100290009F5FF2CF832F27960FB6F894DEBF0FBE75
:1002A000CDBFDF91CF91089598E094B9806885B96A
:1002B000089585B1806485B92E99FECF87B10895E0
:1002C000AA1BBB1B51E107C0AA1FBB1FA617B7077C
:1002D00010F0A61BB70B881F991F5A95A9F7809598
:1002E0009095BC01CD010895AEE0B0E0E9E7F1E002
:1002F000B6C20D891E8986E08C831A8309838FEF2D
:100300009FE79E838D83AE01475E5F4F6F89788D37
:10031000CE01019608D0EF81F885E00FF11F108221
:100320002E96E4E0B8C2ABE0B0E0E8E9F1E089C2C3
:100330006C017B018A01FC0117821682838181FF97
:10034000C0C1CE0101963C01F6019381F70193FDF6
:10035000859193FF81917F01882309F4AEC1853295
:1003600039F493FD859193FF81917F01853221F4CA
:10037000B60190E0C1D1E8CF912C212C312CFFE1C6
:10038000F315E0F08B3279F038F4803279F0833273
:10039000A9F4232D206110C08D3259F0803371F4FF
:1003A000232D216009C0832D8260382EE32DE46067
:1003B00022C0F32DF86025C0322E27C037FC2DC097
:1003C00020ED280F2A3088F436FE06C0892D6AE019
:1003D0002FD2922E980E19C0822D6AE029D2222E99
:1003E000280E832D8062382E10C08E3231F436FCF8
:1003F00064C1E32DE0643E2E08C08C3621F4F32D59
:10040000F0683F2E02C0883641F4F70193FD8591D4
:1004100093FF81917F018111B2CF982F9F7D9554D9
:10042000933028F40C5F1F4F2FE329830DC08336D0
:1004300031F0833771F0833509F055C020C0F801E1
:10044000808189830E5F1F4F88248394912C5301F0
:1004500012C02801F2E04F0E511CF801A080B180BB
:1004600036FE03C0692D70E002C06FEF7FEFC5015B
:1004700038D14C018201F32DFF773F2E15C02801A2
:1004800022E0420E511CF801A080B18036FE03C06C
:10049000692D70E002C06FEF7FEFC50117D14C01ED
:1004A000F32DF0683F2E820133FC19C0822D90E0BD
:1004B00088169906A0F4B60180E290E01DD12A9436
:1004C000F5CFF50137FC859137FE81915F01B601CB
:1004D00090E012D121102A9421E0821A910881140F
:1004E000910479F7E1C0843611F0893639F5F801C5
:1004F00037FE07C060817181828193810C5F1F4F3D
:1005000008C060817181072E000C880B990B0E5F6B
:100510001F4FF32DFF763F2E97FF09C090958095D2
:10052000709561957F4F8F4F9F4FF0683F2E2AE067
:1005300030E0A3011DD1882E861844C0853731F4E0
:10054000232D2F7EB22E2AE030E025C0932D997FF7
:10055000B92E8F36C1F018F4883579F0AEC08037E7
:1005600019F0883721F0A9C0E92FE061BE2EB4FE52
:100570000DC0FB2DF460BF2E09C034FE0AC0292F28
:100580002660B22E06C028E030E005C020E130E051
:1005900002C020E132E0F801B7FE07C0608171813E
:1005A000828193810C5F1F4F06C06081718180E062
:1005B00090E00E5F1F4FA301DBD0882E8618FB2D25
:1005C000FF773F2E36FE0DC0232D2E7FA22E8914DD
:1005D00058F434FE0BC032FC09C0832D8E7EA82E49
:1005E00005C0B82CA32C03C0B82C01C0B92CA4FEA4
:1005F0000FC0FE01E80DF11D8081803321F49A2D9A
:10060000997EA92E09C0A2FE06C0B394B39404C07B
:100610008A2D867809F0B394A3FC10C0A0FE06C012
:10062000B21480F4280C922C9B180DC0B21458F40C
:10063000B60180E290E060D0B394F8CFB21418F421
:100640002B1802C0982C212CA4FE0FC0B60180E309
:1006500090E052D0A2FE16C0A1FC03C088E790E053
:1006600002C088E590E0B6010CC08A2D867851F072
:10067000A1FE02C08BE201C080E2A7FC8DE2B601C0
:1006800090E03AD0891430F4B60180E390E034D0A1
:100690009A94F8CF8A94F301E80DF11D8081B60198
:1006A00090E02AD08110F6CF222009F44DCEB60179
:1006B00080E290E021D02A94F7CFF60186819781DD
:1006C00002C08FEF9FEF2B96E2E1D7C0FC010590AF
:1006D000615070400110D8F7809590958E0F9F1F44
:1006E0000895FC016150704001900110D8F7809589
:1006F00090958E0F9F1F08950F931F93CF93DF93B5
:10070000FB01238121FD03C08FEF9FEF2CC022FF4F
:1007100016C046815781248135814217530744F41E
:10072000A081B1819D012F5F3F4F318320838C9346
:10073000268137812F5F3F4F3783268314C08B017B
:10074000EC01FB010084F185E02D0995892BE1F690
:10075000D80116968D919C911797019617969C93A8
:100760008E931697CE01DF91CF911F910F9108952F
:10077000FA01AA27283061F1203191F1E8946F93B2
:100780006E7F6E5F7F4F8F4F9F4FAF4FB1E040D076
:10079000B4E03ED0670F781F891F9A1FA11D680F14
:1007A000791F8A1F911DA11D6A0F711D811D911D49
:1007B000A11D22D009F468943F91062E000C301937
:1007C000000C000C3019305D3193CEF6CF01089546
:1007D000462F4770405D4193B3E00FD0C9F7F6CF85
:1007E000462F4F70405D4A3318F0495D31FD40524D
:1007F000419302D0A9F7EACFB4E0A69597958795E3
:1008000077956795BA95C9F70097610571050895C1
:100810009B01AC010A2E069457954795379527956D
:10082000BA95C9F7620F731F841F951FA01D089505
:10083000002480FD060E660F11F08695D1F7802DFD
:1008400008952F923F924F925F926F927F928F9274
:100850009F92AF92BF92CF92DF92EF92FF920F934F
:100860001F93CF93DF93CDB7DEB7CA1BDB0B0FB659
:10087000F894DEBF0FBECDBF09942A883988488816
:100880005F846E847D848C849B84AA84B984C884AC
:10089000DF80EE80FD800C811B81AA81B981CE0FA3
:1008A000D11D0FB6F894DEBF0FBECDBFED01089588
:0408B000F894FFCFEA
:1008B400CF6733190C070345454120656E204D6F02
:1008C40072736520646F6E6E65202D2D2D3E202E73
:1008D400202E202E5F09202564202025640D0A0087
:1008E4004D43555352203A20005741544348204425
:1008F4004F472052455345540042524F574E2D4FB7
:100904005554205245534554004558544552544E6D
:10091400414C20524553455400504F5745522D4F9A
:0C0924004E205245534554000A0D0000BF
:00000001FF
